:04000000A4EF25F054
:10484A00016E01C083FF1200070E93160F0E951218
:10485A00120065C001F066C002F012000000B0410B
:10486A000000B0410000B04194929494030ECA1221
:10487A00CA840C0EBD120C0EBA121200670EAF6E6D
:10488A00AC9CAC8AAC98AC84AB8EAB9CAB88120067
:10489A00016E01C0ADFFACA255EF24F057EF24F032
:1048AA0050EF24F01200000E016E012A180E016466
:1048BA0061EF24F063EF24F05AEF24F01200000EA7
:1048CA00026E58EC24F0022A310E02646FEF24F0D3
:1048DA0071EF24F066EF24F01200480E016EE80E24
:1048EA00026E010E036E000E046E0FC005F010C0BA
:1048FA0006F0076A086A0CEC2CF00104CB6E120071
:10490A0001500302F3CF05F0F4CF06F00150040280
:10491A00F350062602500302F350062605C001F0A2
:10492A0006C002F01200076E8482075025EC24F0BC
:10493A008494000E026E030E016E29EC26F0849216
:10494A00000E026E030E016E29EC26F0848212001C
:10495A00076E8482075025EC24F08484000E026ED0
:10496A00030E016E29EC26F08492000E026E030EED
:10497A00016E29EC26F0848212001F040404040E3E
:10498A000E0E0E0E0E0E04040400000502070507A3
:10499A000305001A1C1E0A1E0C1A0000B041000072
:1049AA00B0410000B0410000B04102000800000E12
:1049BA003C1A000E3D1A000E3E1A800E3F1A38C0ED
:1049CA0028F039C029F03AC02AF03BC02BF03CC08D
:1049DA002CF03DC02DF03EC02EF03FC02FF0E8EC89
:1049EA003CF028C038F029C039F02AC03AF02BC070
:1049FA003BF01200000E0C6E12EF25F00C5008244A
:104A0A000A6E000E09200B6E0AC0F6FF0BC0F7FFF4
:104A1A000800F550ADEC24F00C2A0C5008240A6E5C
:104A2A00000E09200B6E0AC0F6FF0BC0F7FF080044
:104A3A00F5500009D8A424EF25F026EF25F003EF5E
:104A4A0025F01200000E066E3AEF25F006500224F9
:104A5A00046E000E0320056E04C0F6FF05C0F7FFC2
:104A6A000800F5504DEC24F0062A06500224046E84
:104A7A00000E0320056E04C0F6FF05C0F7FF08000C
:104A8A00F5500009D8A44CEF25F04EEF25F02BEF96
:104A9A0025F01200076E83CF08F0000E956E000E07
:104AAA00026E220E016E000E046E010E036E39ECC8
:104ABA0035F007C083FF000E026E210E016E000E54
:104ACA00046E010E036E39EC35F0000E026E210EF3
:104ADA00016E000E046E000E036E39EC35F008C04C
:104AEA0083FF58EC24F01200000E026E020E016ED3
:104AFA00000E046E000E036E60EC36F0000E026EBD
:104B0A00030E016E000E046E000E036E60EC36F0AA
:104B1A00000E026E040E016E000E046E000E036E8D
:104B2A0060EC36F0000E026E050E016E000E046E89
:104B3A00000E036E60EC36F0000E956E1200840EC5
:104B4A00F66E490EF76E000EF86E00EE80F010EE6B
:104B5A0034F00900F5CFEEFFE550E150FAE1660EB8
:104B6A00F66E480EF76E000EF86E00EE73F010EE59
:104B7A000CF00900F5CFEEFFE550E150FAE100EE46
:104B8A005DF0160EEE6AE806FDE1000EF86E000111
:104B9A0087EF37F00E6E0D50D8A4D6EF25F0D8EF78
:104BAA0025F0DAEF25F00EC06AF00D04D8A4E0EF84
:104BBA0025F0E2EF25F0E4EF25F00EC069F0020ED1
:104BCA000D18D8A4EBEF25F0EDEF25F0EFEF25F067
:104BDA000EC068F0030E0D18D8A4F6EF25F0F8EF12
:104BEA0025F0FAEF25F00EC067F012008492849443
:104BFA00000E026E140E016E29EC26F08482380E25
:104C0A0098EC24F0000E026E050E016E29EC26F0D7
:104C1A00380E98EC24F0000E026E010E016E29EC9B
:104C2A0026F0380E98EC24F0080E98EC24F00F0EBB
:104C3A0098EC24F0010E98EC24F0380E98EC24F04D
:104C4A00800E98EC24F01200000E046E000E036E23
:104C5A004FEF26F0000E056E280E056437EF26F09A
:104C6A0039EF26F03BEF26F04DEF26F0000E066EE8
:104C7A00020E066443EF26F045EF26F047EF26F0D2
:104C8A004AEF26F0062A3DEF26F0052A31EF26F0F4
:104C9A00034A042A0150035C02500458D8A058EF72
:104CAA0026F05AEF26F02FEF26F0120003500410D8
:104CBA00D8B462EF26F064EF26F088EF26F0010EF2
:104CCA00056E6CEF26F0D89003360436052A04AE3A
:104CDA0071EF26F073EF26F068EF26F00350015CBF
:104CEA0004500258D8A07CEF26F07EEF26F082EF1F
:104CFA0026F00350015E0450025AD890043203325F
:104D0A00052E73EF26F001C001F002C002F0120076
:104D1A00000E936E010E036E000E026E03C081FF39
:104D2A00000E016E000E046E042A0428D8A4A0EF17
:104D3A0026F0A2EF26F099EF26F0000E046E042A60
:104D4A000428D8A4ABEF26F0ADEF26F0A4EF26F0A6
:104D5A00012A0128D8A4B4EF26F0B6EF26F097EF7F
:104D6A0026F003500324036E022A070E0264C0EFE2
:104D7A0026F0C2EF26F093EF26F01200000E936E93
:104D8A00800E036E000E026E03C081FF000E016EDC
:104D9A00000E046E042A0428D8A4D6EF26F0D8EF11
:104DAA0026F0CFEF26F0000E046E042A0428D8A4B9
:104DBA00E1EF26F0E3EF26F0DAEF26F0012A0128E8
:104DCA00D8A4EAEF26F0ECEF26F0CDEF26F0D89043
:104DDA000330036E022A070E0264F6EF26F0F8EF9C
:104DEA0026F0C9EF26F012000F6E010ECB24016ED9
:104DFA00026A000E02220FC003F0046A85EC24F056
:104E0A0001C010F002C011F010C006F011C007F086
:104E1A00000E096E190E086E2FEC27F006C010F06E
:104E2A0007C011F0FF0E1016030E111610C00DF078
:104E3A0011C00EF0D8900E320D32D8900E320D32CB
:104E4A000D50BE6E10C00DF0030E0D160D38F00B8E
:104E5A00BD121200000E0B6E000E0A6E08500910E9
:104E6A00D8B43AEF27F03CEF27F064EF27F0010EB1
:104E7A000C6E44EF27F0D890083609360C2A09AE92
:104E8A0049EF27F04BEF27F040EF27F0D8900A368A
:104E9A000B360850065C09500758D8A057EF27F080
:104EAA0059EF27F05EEF27F00850065E0950075ABF
:104EBA000A80D890093208320C2E4BEF27F00AC02C
:104ECA0006F00BC007F01200086E83CF07F0000E41
:104EDA00956E000E026E220E016E000E046E000E1A
:104EEA00036E39EC35F008C083FF000E026E210E06
:104EFA00016E000E046E010E036E39EC35F0000EE1
:104F0A00026E210E016E000E046E000E036E39EC65
:104F1A0035F007C083FF020E0818D8B497EF27F0C0
:104F2A0099EF27F0A1EF27F00804D8A49FEF27F004
:104F3A00A1EF27F0A5EF27F064EC24F0A7EF27F004
:104F4A0058EC24F012007BC028F07CC029F07DC008
:104F5A002AF07EC02BF0000E136E000E146E800E27
:104F6A00156E3E0E166E38C001F039C002F0000E02
:104F7A0002BEFF0E036E046E010E4FEC32F001C04A
:104F8A000FF002C010F003C011F004C012F0D3EC0D
:104F9A003AF00FC02CF010C02DF011C02EF012C044
:104FAA002FF0E8EC3CF028C07BF029C07CF02AC046
:104FBA007DF02BC07EF0828A010E026E5E0E016EBB
:104FCA0029EC26F0829A1200000E606E000E5F6EC7
:104FDA005F4A602A60BEFBEF27F0605009E1320E9B
:104FEA005F5CD8A0FBEF27F0FDEF27F0EDEF27F08D
:104FFA00000E0D6E0E0ECFEC25F0020E0D6E000E99
:10500A00096E0A0E086E5DC006F05EC007F02FEC4E
:10501A0027F006C001F007C002F0000E046E0A0E67
:10502A00036E5BEC26F00150CFEC25F0030E0D6EFB
:10503A005DC001F05EC002F0000E046E0A0E036E3F
:10504A005BEC26F00150CFEC25F01200000E0A6E40
:10505A00000E096EABB434EF28F036EF28F03DEFBE
:10506A0028F0ABA23BEF28F03DEF28F04BEF28F0F9
:10507A00AB98AB884BEF28F0000E026E140E016E4F
:10508A0029EC26F0140E0926000E0A220750095CA4
:10509A0008500A58D8A054EF28F056EF28F05FEFCE
:1050AA0028F007500810D8A45DEF28F05FEF28F029
:1050BA0066EF28F09EAA64EF28F066EF28F041EF29
:1050CA0028F09EAA6BEF28F06DEF28F070EF28F019
:1050DA00AE5071EF28F0A50E1200800E98EC24F065
:1050EA00D90E086E7F0E096EFFEC24F0900E98EC34
:1050FA0024F0A50E086E7F0E096EFFEC24F0D00E88
:10510A0098EC24F0380E086E7F0E096EFFEC24F03E
:10511A000B0E026EB80E016E29EC26F0010E98EC09
:10512A0024F0800E98EC24F0070E086E7F0E096EAC
:10513A00FFEC24F0C00E98EC24F08D0E086E7F0E62
:10514A00096EFFEC24F0900E98EC24F0BC0E086E69
:10515A007F0E096EFFEC24F00B0E026EB80E016E84
:10516A0029EC26F0010E98EC24F0120020EE80F0D3
:10517A0010EE0DF00F0EDBCFE3FFE806FCE2010EA6
:10518A0098EC24F0400E69EC27F0000E1D6E0D0E0F
:10519A001D24D96EDA6A000EDA22DF504FEC25F0B0
:1051AA001D2A0F0E1D64DCEF28F0DEEF28F0CCEF8D
:1051BA0028F0C00E69EC27F0000E4FEC25F0900E97
:1051CA0069EC27F0010E4FEC25F0CF0E69EC27F0C1
:1051DA00000E4FEC25F09F0E69EC27F0010E4FEC04
:1051EA0025F0950E98EC24F0F10E086E7F0E096EEC
:1051FA00FFEC24F03A0E026E980E016E29EC26F0AE
:10520A001200000E0114096E000E02140A6E800EBE
:10521A0003140B6E7F0E04140C6E09500A100B1047
:10522A000C10D8A41BEF29F01DEF29F025EF29F067
:10523A00000E016E000E026E000E036E000E046E6A
:10524A00000E0514096E000E06140A6E800E07146D
:10525A000B6E7F0E08140C6E09500A100B100C10FE
:10526A00D8A43AEF29F03CEF29F044EF29F0000ED8
:10527A00056E000E066E000E076E000E086E0550D3
:10528A0001180FE1065002180CE10750031809E152
:10529A0008500418D8B454EF29F056EF29F059EF02
:1052AA0029F0D8905AEF29F0D8801200000E0A6E21
:1052BA0008C001F009C002F029EC26F01C0E98EC97
:1052CA0024F00A2A030E0A646DEF29F06FEF29F021
:1052DA005DEF29F0000E0A6E08C001F009C002F065
:1052EA0029EC26F0180E98EC24F00A2A030E0A6418
:1052FA0081EF29F083EF29F071EF29F0000E0A6E91
:10530A0008C001F009C002F029EC26F01C0E98EC46
:10531A0024F00A2A030E0A6495EF29F097EF29F080
:10532A0085EF29F0000E0A6E08C001F009C002F0EC
:10533A0029EC26F0180E98EC24F00A2A030E0A64C7
:10534A00A9EF29F0ABEF29F099EF29F0030E026ECD
:10535A00E80E016E29EC26F012000A0E106E070EF6
:10536A00026ED00E016E29EC26F0FCEF29F0B10E88
:10537A00026E7F0E036E27EC25F0010E98EC24F0E6
:10538A00800E98EC24F0E10E086E7F0E096EFFEC99
:10539A0024F0000E0F6E070E086ED00E076E2BEC6F
:1053AA0028F0106E0F2A0F0E0F64DEEF29F0E0EFDF
:1053BA0029F0D0EF29F0300E105E090E1064E8EFE4
:1053CA0029F0EAEF29F0FCEF29F0010E98EC24F01D
:1053DA00800E98EC24F0280E086E7F0E096EFFEC02
:1053EA0024F0010E026EF40E016E29EC26F00A0E6C
:1053FA00106002EF2AF004EF2AF0BCEF29F0F80E51
:10540A00026E7F0E036E27EC25F010504DEC24F04F
:10541A0010C00DF00E6A120036EF2AF0828A7BC0A5
:10542A0028F07CC029F07DC02AF07EC02BF0000E47
:10543A002C6E000E2D6E000E2E6E3F0E2F6EE8ECB7
:10544A003CF028C07BF029C07CF02AC07DF02BC03C
:10545A007EF0000E026E960E016E29EC26F07CECB0
:10546A002EF0000E016E000E026E000E036E400E4C
:10547A00046E7BC005F07CC006F07DC007F07EC0DC
:10548A0008F083EC2AF0D8B04DEF2AF04FEF2AF05B
:10549A0013EF2AF0000E016E000E026E000E036E6C
:1054AA00400E046E73C005F074C006F075C007F0B4
:1054BA0076C008F083EC2AF0D8B066EF2AF068EFDD
:1054CA002AF013EF2AF0000E016E000E026E000E93
:1054DA00036E400E046E77C005F078C006F079C0FE
:1054EA0007F07AC008F083EC2AF0D8B07FEF2AF0F0
:1054FA0081EF2AF013EF2AF0829A1200000E0114AB
:10550A00096E000E02140A6E800E03140B6E7F0ED3
:10551A0004140C6E09500A100B100C10D8A498EF42
:10552A002AF09AEF2AF0A2EF2AF0000E016E000E7E
:10553A00026E000E036E000E046E000E0514096E54
:10554A00000E06140A6E800E07140B6E7F0E0814E6
:10555A000C6E09500A100B100C10D8A4B7EF2AF0E1
:10556A00B9EF2AF0C1EF2AF0000E056E000E066EA2
:10557A00000E076E000E086E04AEC6EF2AF0C8EFE2
:10558A002AF0D1EF2AF0016C021ED8B0022A031EBB
:10559A00D8B0032A800E045608AED6EF2AF0D8EF08
:1055AA002AF0E1EF2AF0056C061ED8B0062A071E7B
:1055BA00D8B0072A800E0856000E011A000E021AE9
:1055CA00000E031A800E041A000E051A000E061A9F
:1055DA00000E071A800E081A0550015C0650025880
:1055EA000750035808500458D8B0FEEF2AF000EFCD
:1055FA002BF003EF2BF0D89004EF2BF0D880120099
:10560A002A342B34316E3150D8A40EEF2BF010EF20
:10561A002BF01AEF2BF0000E286E000E296E000EEA
:10562A002A6E000E2B6E87EF2BF028C02CF029C0B3
:10563A002DF02AC02EF02BC02FF0200E2AEF2BF0CF
:10564A00D8902F322E322D322C32E82E25EF2BF025
:10565A002C50306E2A8EFF0E2816FF0E2916FF0ECA
:10566A002A16000E2B16960E315E31BE41EF2BF034
:10567A003FEF2BF057EF2BF03150800A970FD8B03D
:10568A0049EF2BF04BEF2BF04DEF2BF010EF2BF0F7
:10569A00D8902B322A3229322832313E4DEF2BF064
:1056AA006FEF2BF01F0E31645DEF2BF05FEF2BF0E5
:1056BA0067EF2BF010EF2BF0D890283629362A36D0
:1056CA002B3631063150D8A46DEF2BF06FEF2BF04B
:1056DA0061EF2BF03050D8B475EF2BF077EF2BF049
:1056EA007FEF2BF02B1E2A1E291E286C000E292262
:1056FA002A222B2228C028F029C029F02AC02AF001
:10570A002BC02BF0120032C006F033C007F0270E70
:10571A00096E100E086E2FEC27F00650300F34C0B9
:10572A00D9FF35C0DAFFDF6E20EE01F03450D926FA
:10573A003550DA22270E046E100E036E32C001F0C5
:10574A0033C002F05BEC26F001C006F002C007F09D
:10575A00030E096EE80E086E2FEC27F00650300F84
:10576A00DF6E20EE02F03450D9263550DA22030ECD
:10577A00046EE80E036E32C001F033C002F05BEC37
:10578A0026F001C006F002C007F0000E096E640E92
:10579A00086E2FEC27F00650300FDF6E20EE03F074
:1057AA003450D9263550DA22000E046E640E036E88
:1057BA0032C001F033C002F05BEC26F001C006F003
:1057CA0002C007F0000E096E0A0E086E2FEC27F0D1
:1057DA000650300FDF6E20EE04F03450D9263550D3
:1057EA00DA2232C001F033C002F0000E046E0A0E53
:1057FA00036E5BEC26F00150300FDF6E20EE05F0F1
:10580A003450D9263550DA22000EDF6E1200000E0F
:10581A000A6E08BE15EF2CF013EF2CF01FEF2CF0D8
:10582A00081E071E061E056C000E06220722082205
:10583A00010E0A6E04BE26EF2CF024EF2CF030EF96
:10584A002CF0041E031E021E016C000E022203220B
:10585A000422010E0A1A000E0B6E000E0C6E000EC8
:10586A000D6E000E0E6E0550061007100810D8B403
:10587A0041EF2CF043EF2CF079EF2CF0010E096E7A
:10588A004DEF2CF0D8900536063607360836092A29
:10589A0008AE52EF2CF054EF2CF047EF2CF0D890D2
:1058AA000B360C360D360E360550015C0650025882
:1058BA000750035808500458D8A066EF2CF068EF38
:1058CA002CF071EF2CF00550015E0650025A075079
:1058DA00035A0850045A0B80D8900832073206320D
:1058EA000532092E54EF2CF00A50D8B47FEF2CF071
:1058FA0081EF2CF089EF2CF00E1E0D1E0C1E0B6C86
:10590A00000E0C220D220E220BC001F00CC002F078
:10591A000DC003F00EC004F01200949096907BC064
:10592A0001F07CC002F07DC003F07EC004F0000EDE
:10593A00056E000E066EC00E076E400E086E83ECF2
:10594A002AF0D8B0ABEF2CF0ADEF2CF02AEF2DF007
:10595A0073C001F074C002F075C003F076C004F0A1
:10596A00000E056E000E066EC00E076E400E086E23
:10597A0083EC2AF0D8B0C4EF2CF0C6EF2CF02AEF53
:10598A002DF077C001F078C002F079C003F07AC038
:10599A0004F0000E056E000E066EC00E076E400E75
:1059AA00086E83EC2AF0D8B0DDEF2CF0DFEF2CF094
:1059BA002AEF2DF0000E016E000E026E800E036EAD
:1059CA00400E046E7BC005F07CC006F07DC007F077
:1059DA007EC008F083EC2AF0D8B0F6EF2CF0F8EF8E
:1059EA002CF02AEF2DF0000E016E000E026E800ED2
:1059FA00036E400E046E73C005F074C006F075C0E5
:105A0A0007F076C008F083EC2AF0D8B00FEF2DF03B
:105A1A0011EF2DF02AEF2DF0000E016E000E026E2E
:105A2A00800E036E400E046E77C005F078C006F053
:105A3A0079C007F07AC008F083EC2AF0D8A028EFE2
:105A4A002DF02AEF2DF02EEF2DF08270847030EFBA
:105A5A002DF0829084901200000E526E000E516E4C
:105A6A0067EF2DF0800E98EC24F0730E086E7F0E0F
:105A7A00096EFFEC24F0600EF9EC26F07BC038F0DA
:105A8A007CC039F07DC03AF07EC03BF0000E3C6E1F
:105A9A00000E3D6E800E3E6E3E0E3F6EDCEC24F034
:105AAA0038C07BF039C07CF03AC07DF03BC07EF054
:105ABA00000E026E960E016E29EC26F07CEC2EF09A
:105ACA00514A522A7BC001F07CC002F07DC003F02B
:105ADA007EC004F0000E056E000E066E000E076E04
:105AEA00410E086E83EC2AF0D8B07EEF2DF080EFDD
:105AFA002DF037EF2DF073C001F074C002F075C0BD
:105B0A0003F076C004F0000E056E000E066E000E5D
:105B1A00076E410E086E83EC2AF0D8B097EF2DF08D
:105B2A0099EF2DF037EF2DF077C001F078C002F031
:105B3A0079C003F07AC004F0000E056E000E066EFE
:105B4A00000E076E410E086E83EC2AF0D8B0B0EF53
:105B5A002DF0B2EF2DF037EF2DF051505210D8B48E
:105B6A00B9EF2DF0BBEF2DF0D0EF2DF0010E98EC30
:105B7A0024F0800E98EC24F0E90E086E7F0E096E70
:105B8A00FFEC24F0900E98EC24F0D00E086E7F0EF5
:105B9A00096EFFEC24F0000EF9EC26F01200000E5C
:105BAA00956E000E026E020E016E000E046E000E5D
:105BBA00036E39EC35F0000E026E030E016E000E14
:105BCA00046E000E036E39EC35F0000E026E040E00
:105BDA00016E000E046E000E036E39EC35F0000EF5
:105BEA00026E050E016E000E046E000E036E39EC95
:105BFA0035F0000E836E5EEF2EF0910E6A24F66E7B
:105C0A00F76A7E0EF7220800F5CF83FF000E026EB8
:105C1A00020E016E000E046E010E036E39EC35F0B1
:105C2A00010E6B6E7BEF2EF0910E6924F66EF76A09
:105C3A007E0EF7220800F5CF83FF000E026E030ED8
:105C4A00016E000E046E010E036E39EC35F0020E81
:105C5A006B6E7BEF2EF0910E6824F66EF76A7E0E5D
:105C6A00F7220800F5CF83FF000E026E040E016EC4
:105C7A00000E046E010E036E39EC35F0030E6B6EE6
:105C8A007BEF2EF0910E6724F66EF76A7E0EF722EE
:105C9A000800F5CF83FF000E026E050E016E000E9E
:105CAA00046E010E036E39EC35F0000E6B6E7BEF5D
:105CBA002EF06B50076E086A0850000AD8B468EFD5
:105CCA002EF05AEF2EF00750000AD8B402EF2EF049
:105CDA00010AD8B419EF2EF0030AD8B430EF2EF027
:105CEA00010AD8B447EF2EF05AEF2EF012007BC00B
:105CFA00ACF07CC0ADF07DC0AEF07EC0AFF07BC032
:105D0A0028F07CC029F07DC02AF07EC02BF0000E5E
:105D1A002C6E000E2D6E800E2E6E3F0E2F6EE8EC4E
:105D2A003CF028C0A8F029C0A9F02AC0AAF02BC0CC
:105D3A00ABF0A8C02CF0A9C02DF0AAC02EF0ABC0C1
:105D4A002FF0ACC028F0ADC029F0AEC02AF0AFC029
:105D5A002BF0E8EC3CF028C038F029C039F02AC012
:105D6A003AF02BC03BF0000E3C6E000E3D6E000E6A
:105D7A003E6E400E3F6E06EC39F038C073F039C003
:105D8A0074F03AC075F03BC076F073C02CF074C062
:105D9A002DF075C02EF076C02FF07BC028F07CC0A5
:105DAA0029F07DC02AF07EC02BF0E8EC3CF028C038
:105DBA0038F029C039F02AC03AF02BC03BF0000E67
:105DCA003C6E000E3D6E000E3E6E400E3F6E06ECBF
:105DDA0039F038C077F039C078F03AC079F03BC072
:105DEA007AF0A4C001F0A5C002F0A6C003F0A7C0D3
:105DFA0004F07BC005F07CC006F07DC007F07EC0D1
:105E0A0008F083EC2AF0D8B00DEF2FF00FEF2FF047
:105E1A0017EF2FF07BC0A4F07CC0A5F07DC0A6F0E0
:105E2A007EC0A7F07BC001F07CC002F07DC003F009
:105E3A007EC004F0A0C005F0A1C006F0A2C007F021
:105E4A00A3C008F083EC2AF0D8B02EEF2FF030EF81
:105E5A002FF038EF2FF07BC0A0F07CC0A1F07DC0FE
:105E6A00A2F07EC0A3F0120083CF06F00F0E9512A7
:105E7A00000E0A6EF80E93160AC001F0010E026EA9
:105E8A00012A4AEF2FF0D8900236012E48EF2FF060
:105E9A0002509312070E81120AC001F0010E026E1F
:105EAA00012A5AEF2FF0D8900236012E58EF2FF020
:105EBA000250FF0A8116000E086E000E076E074A8E
:105ECA00082A08BE72EF2FF0085009E10A0E075C93
:105EDA00D8A072EF2FF074EF2FF064EF2FF0000EBE
:105EEA00096E09C001F0010E026E012A7FEF2FF040
:105EFA00D8900236012E7DEF2FF00250831400094C
:105F0A00D8A48AEF2FF08CEF2FF0A4EF2FF00A50CD
:105F1A00040DF3500924016E010E026E000E036E89
:105F2A00012A9BEF2FF0D89002360336012E98EF04
:105F3A002FF00250631203506412BEEF2FF00A5082
:105F4A00040DF3500924016E010E026E000E036E59
:105F5A00012AB3EF2FF0D89002360336012EB0EFA4
:105F6A002FF0021C046E031C056E045063160550C4
:105F7A006416092A030E0964C5EF2FF0C7EF2FF044
:105F8A0076EF2FF00A2A020E0A64CEEF2FF0D0EF36
:105F9A002FF03FEF2FF06350611807E16450621849
:105FAA00D8A4DAEF2FF0DCEF2FF0DFEF2FF06C063A
:105FBA00E5EF2FF00A0E6C6E63C061F064C062F008
:105FCA006C50D8A4EBEF2FF0EDEF2FF0F1EF2FF09C
:105FDA0061C065F062C066F006C083FF000E956E70
:105FEA001200010E98EC24F0800E98EC24F0A10E19
:105FFA00086E7E0E096EFFEC24F0C00E98EC24F0B9
:10600A00000E136E000E146E200E156E410E166EE3
:10601A00A4C00FF0A5C010F0A6C011F0A7C012F0DE
:10602A00D3EC3AF00FC028F010C029F011C02AF0C2
:10603A0012C02BF005EC2BF028C032F029C033F047
:10604A006D0E346E000E356E88EC2BF04D0EADECF5
:10605A0024F00001A7BF36EF30F034EF30F03FEF05
:10606A0030F0C10E98EC24F0F40E086E7E0E096E24
:10607A00FFEC24F0C20E98EC24F06F50ADEC24F043
:10608A007050ADEC24F02C0EADEC24F07150ADEC58
:10609A0024F0C60E98EC24F0FC0E086E7F0E096EF2
:1060AA00FFEC24F0900E98EC24F0B20E086E7E0EEF
:1060BA00096EFFEC24F0D00E98EC24F0000E136E5B
:1060CA00000E146E200E156E410E166EA0C00FF053
:1060DA00A1C010F0A2C011F0A3C012F0D3EC3AF0A4
:1060EA000FC028F010C029F011C02AF012C02BF0FE
:1060FA0005EC2BF028C032F029C033F06D0E346E57
:10610A00000E356E88EC2BF06D0EADEC24F000011C
:10611A00A3BF94EF30F092EF30F09DEF30F0D10E44
:10612A0098EC24F0F40E086E7E0E096EFFEC24F053
:10613A00D20E98EC24F06F50ADEC24F07050ADEC18
:10614A0024F02C0EADEC24F07150ADEC24F0D60EF8
:10615A0098EC24F0FC0E086E7F0E096EFFEC24F01A
:10616A0012007BC001F07CC002F07DC003F07EC04B
:10617A0004F0000E056E000E066E100E076E410E3C
:10618A00086E83EC2AF0D8B0CDEF30F0CFEF30F0C4
:10619A004CEF31F073C001F074C002F075C003F027
:1061AA0076C004F0000E056E000E066E100E076E25
:1061BA00410E086E83EC2AF0D8B0E6EF30F0E8EF33
:1061CA0030F04CEF31F077C001F078C002F079C0BE
:1061DA0003F07AC004F0000E056E000E066E100E73
:1061EA00076E410E086E83EC2AF0D8B0FFEF30F04C
:1061FA0001EF31F04CEF31F0000E016E000E026E2D
:10620A00800E036E3F0E046E7BC005F07CC006F064
:10621A007DC007F07EC008F083EC2AF0D8B018EFF2
:10622A0031F01AEF31F04CEF31F0000E016E000E32
:10623A00026E800E036E3F0E046E73C005F074C0CA
:10624A0006F075C007F076C008F083EC2AF0D8B0E3
:10625A0031EF31F033EF31F04CEF31F0000E016ED7
:10626A00000E026E800E036E3F0E046E77C005F0BC
:10627A0078C006F079C007F07AC008F083EC2AF0FB
:10628A00D8A04AEF31F04CEF31F07BEF31F0270E16
:10629A00106E100E0F6E72EC24F0000E116E010ECD
:1062AA00126E948212C081FF12C083FF000E026E2A
:1062BA00640E016E29EC26F01250020DF3CF12F093
:1062CA001250D8A46BEF31F06DEF31F056EF31F088
:1062DA009492112A020E116475EF31F077EF31F0C2
:1062EA0054EF31F0000E816E000E836E1200010E23
:1062FA0098EC24F0800E98EC24F0C30E086E7E0E03
:10630A00096EFFEC24F0C00E98EC24F0000E136E18
:10631A00000E146E200E156E410E166E7BC00FF025
:10632A007CC010F07DC011F07EC012F0D3EC3AF0C0
:10633A000FC028F010C029F011C02AF012C02BF0AB
:10634A0005EC2BF028C032F029C033F06D0E346E04
:10635A00000E356E88EC2BF0540EADEC24F06F5025
:10636A00ADEC24F07050ADEC24F02C0EADEC24F022
:10637A007150ADEC24F0C50E98EC24F0FC0E086EBA
:10638A007F0E096EFFEC24F0900E98EC24F0000EBC
:10639A00136E000E146E200E156E410E166E77C027
:1063AA000FF078C010F079C011F07AC012F0D3EC77
:1063BA003AF00FC028F010C029F011C02AF012C01C
:1063CA002BF005EC2BF028C032F029C033F06D0E0B
:1063DA00346E000E356E88EC2BF04C0EADEC24F0CA
:1063EA006F50ADEC24F07050ADEC24F02C0EADECF7
:1063FA0024F07150ADEC24F0950E98EC24F0FC0ECC
:10640A00086E7F0E096EFFEC24F0D00E98EC24F093
:10641A00000E336E020E326E6D0E346E000E356E45
:10642A0088EC2BF0490EADEC24F0D20E98EC24F057
:10643A007050ADEC24F07150ADEC24F0D40E98EC11
:10644A0024F0FC0E086E7F0E096EFFEC24F0D70EC6
:10645A0098EC24F0000E336E080E326E6D0E346E18
:10646A00000E356E88EC2BF0530EADEC24F0D90EED
:10647A0098EC24F07050ADEC24F07150ADEC24F09F
:10648A00DB0E98EC24F0FC0E086E7F0E096EFFEC12
:10649A0024F01200096E0950D8B456EF32F058EFC2
:1064AA0032F07AEF32F004BE5FEF32F05DEF32F095
:1064BA007AEF32F001C005F002C006F003C007F01F
:1064CA0004C008F0051E061E071E081E052A000E37
:1064DA0006220722082205C00BF006C00CF007C0EE
:1064EA000DF008C00EF082EF32F001C00BF002C0CE
:1064FA000CF003C00DF004C00EF00150021003109E
:10650A000410D8A48BEF32F08DEF32F097EF32F00F
:10651A00000E016E000E026E000E036E000E046E77
:10652A0028EF33F0960E0A6EA1EF32F00A2AD890BD
:10653A000E320D320C320B32000E0B14056E000EA9
:10654A000C14066E000E0D14076EFE0E0E14086E65
:10655A000550061007100810D8A4B6EF32F0B8EFAD
:10656A0032F09BEF32F0C6EF32F00A2A010E0B2608
:10657A00000E0C220D220E22D8900E320D320C3251
:10658A000B32000E0B14056E000E0C14066E000E74
:10659A000D14076EFF0E0E14086E05500610071034
:1065AA000810D8A4DBEF32F0DDEF32F0BAEF32F0A8
:1065BA00E5EF32F00A06D8900B360C360D360E3659
:1065CA000DBEEAEF32F0ECEF32F0F4EF32F0020EE9
:1065DA000A60F2EF32F0F4EF32F0DFEF32F00AB095
:1065EA00F9EF32F0FBEF32F0FCEF32F00D9ED8906B
:1065FA000A320AC005F0066A076A086A05C008F086
:10660A00076A066A056A05500B1206500C120750F3
:10661A000D1208500E120950D8B416EF33F018EFC5
:10662A0033F020EF33F004BE1FEF33F01DEF33F0E9
:10663A0020EF33F00E8E0BC001F00CC002F00DC03B
:10664A0003F00EC004F0120020EE90F010EE0BF0F2
:10665A000F0EDBCFE3FFE806FCE2010E69EC27F040
:10666A00400E69EC27F0000E1B6E0B0E1B24D96E30
:10667A00DA6A000EDA22DF504FEC25F01B2A0F0EE1
:10668A001B644AEF33F04CEF33F03AEF33F0800EED
:10669A0069EC27F0000E4FEC25F0810E69EC27F02B
:1066AA00010E4FEC25F0820E69EC27F0000E4FEC3C
:1066BA0025F0830E69EC27F0010E4FEC25F0840ECD
:1066CA0069EC27F0000E4FEC25F0850E69EC27F0F7
:1066DA00010E4FEC25F0860E69EC27F0000E4FEC08
:1066EA0025F0870E69EC27F0010E4FEC25F0880E95
:1066FA0069EC27F0000E4FEC25F0890E69EC27F0C3
:10670A00010E4FEC25F08A0E69EC27F0000E4FECD3
:10671A0025F08B0E69EC27F0010E4FEC25F08C0E5C
:10672A0069EC27F0000E4FEC25F08D0E69EC27F08E
:10673A00010E4FEC25F08E0E69EC27F0000E4FEC9F
:10674A0025F08F0E69EC27F0010E4FEC25F0D00EE4
:10675A0069EC27F0000E4FEC25F0D10E69EC27F01A
:10676A00010E4FEC25F0D20E69EC27F0000E4FEC2B
:10677A0025F0D30E69EC27F0010E4FEC25F0D40E6C
:10678A0069EC27F0000E4FEC25F0D50E69EC27F0E6
:10679A00010E4FEC25F0D60E69EC27F0000E4FECF7
:1067AA0025F0D70E69EC27F0010E4FEC25F0D80E34
:1067BA0069EC27F0000E4FEC25F0D90E69EC27F0B2
:1067CA00010E4FEC25F0DA0E69EC27F0000E4FECC3
:1067DA0025F0DB0E69EC27F0010E4FEC25F0DC0EFC
:1067EA0069EC27F0000E4FEC25F0DD0E69EC27F07E
:1067FA00010E4FEC25F0DE0E69EC27F0000E4FEC8F
:10680A0025F0DF0E69EC27F0010E4FEC25F0C3EC02
:10681A0026F0010E096E2C0E086E5BEC29F08DEC49
:10682A0026F01200000E126E100E116E000E176E78
:10683A00000E166E010E98EC24F0800E98EC24F0EF
:10684A00C70E086E7F0E096EFFEC24F0C00E98EC9E
:10685A0024F0990E086E7F0E096EFFEC24F0900E5C
:10686A0098EC24F0650E086E7F0E096EFFEC24F09A
:10687A00D00E98EC24F0800E086E7F0E096EFFECA5
:10688A0024F029EC24F039EC2FF02EEC24F01150EE
:10689A00011809E112500218D8B456EF34F058EF33
:1068AA0034F08BEF34F02EEC24F001C011F002C06A
:1068BA0012F02EEC24F002A465EF34F067EF34F006
:1068CA006DEF34F0000E156E010E146E98EF34F071
:1068DA002EEC24F001A274EF34F076EF34F07CEF62
:1068EA0034F0000E156E020E146E98EF34F02EEC92
:1068FA0024F002A083EF34F085EF34F08BEF34F00C
:10690A00000E156E000E146E98EF34F0000E136E22
:10691A00132AF90E136494EF34F096EF34F08DEFE6
:10692A0034F048EF34F014501510D8B49FEF34F017
:10693A00A1EF34F038EF35F0010E98EC24F0800E18
:10694A0098EC24F0F60E086E7E0E096EFFEC24F029
:10695A00C00E98EC24F0570E086E7F0E096EFFECFD
:10696A0024F0900E98EC24F0E50E086E7E0E096E67
:10697A00FFEC24F0D00E98EC24F0180E086E7F0E6F
:10698A00096EFFEC24F0B2EC29F00DC016F00EC02F
:10699A0017F017BED3EF34F0D5EF34F0E3EF34F04D
:1069AA0017BEE1EF34F0175009E1060E165CD8A0C5
:1069BA00E1EF34F0E3EF34F0F9EF34F0010E98EC44
:1069CA0024F0800E98EC24F0280E086E7F0E096ED3
:1069DA00FFEC24F0010E026EF40E016E29EC26F093
:1069EA00000E156E000E146E010E98EC24F01404BD
:1069FA001510D8A403EF35F005EF35F028EF35F080
:106A0A0016505D5C17505E58D8B00EEF35F010EF97
:106A1A0035F024EF35F0010E98EC24F0800E98EC56
:106A2A0024F0D40E086E7E0E096EFFEC24F0070ED9
:106A3A00026ED00E016E29EC26F028EF35F01650C2
:106A4A005D5E17505E5A020E14181510D8A430EF66
:106A5A0035F032EF35F036EF35F016505D26175027
:106A6A005E22E9EC27F0120002BE47EF35F0025031
:106A7A0007E1080E015CD8B045EF35F047EF35F075
:106A8A0071EF35F003500410D8B44EEF35F050EFE3
:106A9A0035F060EF35F001C005F0010E066E052AEB
:106AAA0059EF35F0D8900636052E57EF35F00650D7
:106ABA0080125FEF36F001C005F0010E066E052A5E
:106ACA0069EF35F0D8900636052E67EF35F0065097
:106ADA00FF0A80165FEF36F002BE7FEF35F00250F4
:106AEA0007E1100E015CD8B07DEF35F07FEF35F08D
:106AFA00ADEF35F0F80E0126FF0E02220350041006
:106B0A00D8B48AEF35F08CEF35F09CEF35F001C040
:106B1A0005F0010E066E052A95EF35F0D890063677
:106B2A00052E93EF35F0065081125FEF36F001C063
:106B3A0005F0010E066E052AA5EF35F0D890063647
:106B4A00052EA3EF35F00650FF0A81165FEF36F0E7
:106B5A0002BEBBEF35F0025007E1180E015CD8B057
:106B6A00B9EF35F0BBEF35F0E9EF35F0F00E01265D
:106B7A00FF0E022203500410D8B4C6EF35F0C8EF56
:106B8A0035F0D8EF35F001C005F0010E066E052A82
:106B9A00D1EF35F0D8900636052ECFEF35F00650F6
:106BAA0082125FEF36F001C005F0010E066E052A6B
:106BBA00E1EF35F0D8900636052EDFEF35F00650B6
:106BCA00FF0A82165FEF36F002BEF7EF35F0025089
:106BDA0007E1200E015CD8B0F5EF35F0F7EF35F09C
:106BEA0025EF36F0E80E0126FF0E022203500410AC
:106BFA00D8B402EF36F004EF36F014EF36F001C0E5
:106C0A0005F0010E066E052A0DEF36F0D89006360D
:106C1A00052E0BEF36F0065083125FEF36F001C0F7
:106C2A0005F0010E066E052A1DEF36F0D8900636DD
:106C3A00052E1BEF36F00650FF0A83165FEF36F07B
:106C4A0002BE33EF36F0025007E1280E015CD8B0DD
:106C5A0031EF36F033EF36F05FEF36F0E00E012613
:106C6A00FF0E022203500410D8B43EEF36F040EF74
:106C7A0036F050EF36F001C005F0010E066E052A17
:106C8A0049EF36F0D8900636052E47EF36F0065013
:106C9A0084125FEF36F001C005F0010E066E052A78
:106CAA0059EF36F0D8900636052E57EF36F00650D3
:106CBA00FF0A8416120002BE6EEF36F0025007E198
:106CCA00080E015CD8B06CEF36F06EEF36F098EF34
:106CDA0036F003500410D8B475EF36F077EF36F07B
:106CEA0087EF36F001C005F0010E066E052A80EF27
:106CFA0036F0D8900636052E7EEF36F00650921200
:106D0A0086EF37F001C005F0010E066E052A90EFF6
:106D1A0036F0D8900636052E8EEF36F00650FF0A6A
:106D2A00921686EF37F002BEA6EF36F0025007E160
:106D3A00100E015CD8B0A4EF36F0A6EF36F0D4EF0F
:106D4A0036F003500410D8B4ADEF36F0AFEF36F09A
:106D5A00C1EF36F001C005F0F80E0526010E066EE9
:106D6A00052ABAEF36F0D8900636052EB8EF36F077
:106D7A000650931286EF37F001C005F0F80E05268B
:106D8A00010E066E052ACCEF36F0D8900636052E8F
:106D9A00CAEF36F00650FF0A931686EF37F002BEA6
:106DAA00E2EF36F0025007E1180E015CD8B0E0EFCE
:106DBA0036F0E2EF36F010EF37F003500410D8B493
:106DCA00E9EF36F0EBEF36F0FDEF36F001C005F0F3
:106DDA00F00E0526010E066E052AF6EF36F0D8905B
:106DEA000636052EF4EF36F00650941286EF37F089
:106DFA0001C005F0F00E0526010E066E052A08EF01
:106E0A0037F0D8900636052E06EF37F00650FF0AFF
:106E1A00941686EF37F002BE1EEF37F0025007E1F4
:106E2A00200E015CD8B01CEF37F01EEF37F04CEFA4
:106E3A0037F003500410D8B425EF37F027EF37F0B6
:106E4A0039EF37F001C005F0E80E0526010E066E8F
:106E5A00052A32EF37F0D8900636052E30EF37F094
:106E6A000650951286EF37F001C005F0E80E0526A8
:106E7A00010E066E052A44EF37F0D8900636052E25
:106E8A0042EF37F00650FF0A951686EF37F002BE3A
:106E9A005AEF37F0025007E1280E015CD8B058EFDC
:106EAA0037F05AEF37F086EF37F003500410D8B4B2
:106EBA0061EF37F063EF37F075EF37F001C005F097
:106ECA00E00E0526010E066E052A6EEF37F0D89001
:106EDA000636052E6CEF37F00650961286EF37F01D
:106EEA0001C005F0E00E0526010E066E052A80EFA8
:106EFA0037F0D8900636052E7EEF37F00650FF0A97
:106F0A0096161200000E576E000E586E000E596E3D
:106F1A00000E5A6E000E546E100E536E000E566E10
:106F2A00000E556E000E5C6E000E5B6EC30E926E06
:106F3A00030E936E000E946E000E956E000E966E02
:106F4A00000E836EFBEC25F079EC25F039EC24F089
:106F5A0043EC24F00C0E98EC24F029EC33F0BBEC53
:106F6A0028F0000E7B6E000E7C6EA00E7D6E400E29
:106F7A007E6E7BC0ACF07CC0ADF07DC0AEF07EC052
:106F8A00AFF07BC0A8F07CC0A9F07DC0AAF07EC09B
:106F9A00ABF07BC077F07CC078F07DC079F07EC022
:106FAA007AF07BC073F07CC074F07DC075F07EC04F
:106FBA0076F07BC0A4F07CC0A5F07DC0A6F07EC0B0
:106FCA00A7F07BC0A0F07CC0A1F07DC0A2F07EC07B
:106FDA00A3F0010E69EC27F029EC24F039EC2FF02C
:106FEA0055505610D8A4FCEF37F0FEEF37F016EFE5
:106FFA0038F0000E566E010E556E72EC28F0800EB7
:10700A0098EC24F0E90E086E7F0E096EFFEC24F06E
:10701A00900E98EC24F0D00E086E7F0E096EFFECED
:10702A0024F02EEC24F05350011809E154500218B0
:10703A00D8B422EF38F024EF38F097EF38F02EEC7E
:10704A0024F001C053F002C054F02EEC24F001A643
:10705A0031EF38F033EF38F035EF38F07CEC31F0BF
:10706A002EEC24F001AE3CEF38F03EEF38F059EF49
:10707A0038F017EC34F0010E98EC24F0800E98ECFE
:10708A0024F0480E086E7F0E096EFFEC24F0900E75
:10709A0098EC24F0070E086E7F0E096EFFEC24F0C0
:1070AA00000E5C6E030E5B6E2EEC24F002A660EFFF
:1070BA0038F062EF38F07CEF38F05B505C10D8B4EF
:1070CA0069EF38F06BEF38F071EF38F05BC038F0E9
:1070DA005CC039F0A8EC27F0000E5C6E000E5B6E07
:1070EA00010E98EC24F0000E566E000E556E2EEC32
:1070FA0024F001A483EF38F085EF38F087EF38F0F9
:10710A00F6EC2FF02EEC24F002A08EEF38F090EF80
:10711A0038F097EF38F0010E98EC24F0000E566E16
:10712A00000E556E92EC2CF0B6EC30F07CEC2EF0A2
:10713A0031EC2DF011EC2AF057C028F058C029F094
:10714A0059C02AF05AC02BF0000E2C6E000E2D6E7C
:10715A00800E2E6E3F0E2F6EE8EC3CF028C057F0E2
:10716A0029C058F02AC059F02BC05AF057C001F074
:10717A0058C002F059C003F05AC004F0000E056E60
:10718A00400E066E1C0E076E460E086E06EC29F0BF
:10719A00D8A0D2EF38F0D4EF38F0FEEF38F07BC049
:1071AA0028F07CC029F07DC02AF07EC02BF0000EAA
:1071BA002C6E000E2D6E000E2E6E400E2F6EE8EC19
:1071CA003CF028C07BF029C07CF02AC07DF02BC09F
:1071DA007EF0828A010E026E5E0E016E29EC26F0A6
:1071EA00829A000E576E000E586E000E596E000EEF
:1071FA005A6EE9EC27F0D4EC2DF0F3EF37F000EFFC
:10720A0000F03B50800B486E3B503B244F6E3AAE29
:10721A0011EF39F013EF39F014EF39F04F804F5076
:10722A00D8B41AEF39F01CEF39F031EF39F04F28A2
:10723A00D8A422EF39F024EF39F02CEF39F0000E00
:10724A00386E000E396E000E3A6E000E3B6E3A8EA4
:10725A00000E3B6E39EF39F0000E386E000E396EB3
:10726A00000E3A6E000E3B6E3F50800B481A3F509C
:10727A003F24506E3EAE44EF39F046EF39F047EF07
:10728A0039F050805050D8B44DEF39F04FEF39F003
:10729A0064EF39F05028D8A455EF39F057EF39F098
:1072AA005FEF39F0000E3C6E000E3D6E000E3E6E32
:1072BA00000E3F6E3E8E000E3F6E6CEF39F0000EF0
:1072CA003C6E000E3D6E000E3E6E000E3F6E3C5050
:1072DA003D103E103F10D8A475EF39F077EF39F022
:1072EA008FEF39F0000E386E000E396E000E3A6ECE
:1072FA00000E3B6E800E3A127F0E3B1248503B1234
:10730A0038C038F039C039F03AC03AF03BC03BF0E7
:10731A00D2EF3AF04F50D8A495EF39F097EF39F001
:10732A00A1EF39F0000E386E000E396E000E3A6E7B
:10733A00000E3B6ED2EF3AF050504FC040F0416A17
:10734A00405E000E415A7F0E4024496E000E4120D5
:10735A004A6E38C044F039C045F03AC046F03BC0E6
:10736A0047F0000E386E000E396E000E3A6E000EAF
:10737A003B6E000E4B6E000E4C6E000E4D6E000EF4
:10738A004E6E000E506E02EF3AF05050D8B4D0EF65
:10739A0039F0D2EF39F0E9EF39F0D8904436453672
:1073AA0046364736D890383639363A363B364EAEB8
:1073BA00E1EF39F0E3EF39F0E4EF39F03880D890B3
:1073CA004B364C364D364E363C50445C3D50455853
:1073DA003E5046583F504758D8A0F6EF39F0F8EFDC
:1073EA0039F001EF3AF04E8C3C50445E3D50455A1C
:1073FA003E50465A3F50475A502A190E506408EFD9
:10740A003AF00AEF3AF0CAEF39F044504510461004
:10741A004710D8B413EF3AF015EF3AF02DEF3AF0DF
:10742A004B802DEF3AF0D890383639363A363B361B
:10743A004EAE22EF3AF024EF3AF025EF3AF03880D8
:10744A00D8904B364C364D364E364906D8A04A06A9
:10745A003AAE32EF3AF034EF3AF018EF3AF0000E63
:10746A00506E4EAE3BEF3AF03DEF3AF061EF3AF034
:10747A00FF0E4B14406EFF0E4C14416EFF0E4D145E
:10748A00426E7F0E4E14436E40504110421043101C
:10749A00D8B452EF3AF054EF3AF058EF3AF0010EFE
:1074AA00506E61EF3AF038A05DEF3AF05FEF3AF0D4
:1074BA0061EF3AF054EF3AF05050D8B467EF3AF02F
:1074CA0069EF3AF08DEF3AF0010E3826000E3922B4
:1074DA003A223B223BA074EF3AF076EF3AF08DEF76
:1074EA003AF038C040F039C041F03AC042F03BC0EF
:1074FA0043F04334433242324132403240C038F0E2
:10750A0041C039F042C03AF043C03BF0494A4A2AE6
:10751A004ABE98EF3AF04A5008E14928D8A098EFB5
:10752A003AF09AEF3AF0A5EF3AF0000E4A6E49683F
:10753A00000E386E000E396E000E3A6E000E3B6E6B
:10754A004ABEB2EF3AF04A5006E14904D8B0B0EF69
:10755A003AF0B2EF3AF0C0EF3AF0000E4A6E000E7F
:10756A00496E000E386E000E396E000E3A6E000E2D
:10757A003B6E000E486E49C04FF04FA0C7EF3AF07D
:10758A00C9EF3AF0CCEF3AF03A8ECDEF3AF03A9EA4
:10759A00D8904F303B6E83EF39F012001250800BB7
:1075AA001B6E12501224216E11AEDEEF3AF0E0EF9C
:1075BA003AF0E1EF3AF021802150D8B4E7EF3AF0FF
:1075CA00E9EF3AF0FCEF3AF02128D8A4EFEF3AF0CD
:1075DA00F1EF3AF0F9EF3AF0000E0F6E000E106E6E
:1075EA00000E116E000E126E118E04EF3BF0000EAB
:1075FA000F6E000E106E000E116E000E126E1650F7
:10760A00800B1B1A16501624206E15AE0FEF3BF096
:10761A0011EF3BF012EF3BF020802050D8B418EF66
:10762A003BF01AEF3BF02DEF3BF02028D8A420EFD7
:10763A003BF022EF3BF02AEF3BF0000E136E000EF8
:10764A00146E000E156E000E166E158E35EF3BF099
:10765A00000E136E000E146E000E156E000E166EDE
:10766A002050D8B43BEF3BF03DEF3BF045EF3BF009
:10767A002150D8A443EF3BF045EF3BF04FEF3BF0EE
:10768A00000E0F6E000E106E000E116E000E126EBE
:10769A00E7EF3CF015500F02F3CF26F0F4CF27F0B6
:1076AA0026501C6E1D6A1E6A1F6A2750226E236AA4
:1076BA00246A256A14501002F3CF26F0F4CF27F07B
:1076CA0026501C26000E1D221E221F22275022266B
:1076DA00000E23222422252213501102F3CF26F072
:1076EA00F4CF27F026501C26000E1D221E221F2230
:1076FA0027502226000E2322242225221EC01FF0F4
:10770A001DC01EF01CC01DF01C6A13501002F3CFDE
:10771A0026F0F4CF27F026501C2627501D22000EF3
:10772A001E22000E1F2214500F02F3CF26F0F4CFB0
:10773A0027F026501C2627501D22000E1E22000E5E
:10774A001F221EC01FF01DC01EF01CC01DF01C6AA7
:10775A0013500F02F3CF26F0F4CF27F026501C2641
:10776A0027501D22000E1E22000E1F221550100245
:10777A00F3CF26F0F4CF27F02650222627502322D3
:10778A00000E2422000E252214501102F3CF26F0F7
:10779A00F4CF27F02650222627502322000E242237
:1077AA00000E252215501102F3CF26F0F4CF27F050
:1077BA002650176E2750186E196A1A6A19C01AF0DD
:1077CA0018C019F017C018F0176A17502226185057
:1077DA002322195024221A5025221CC017F01DC03A
:1077EA0018F01EC019F01FC01AF0190E02EF3CF073
:1077FA00D8901A32193218321732E82EFDEF3BF0C0
:10780A001750222618502322195024221A502522B2
:10781A001EC01FF01DC01EF01CC01DF01C6A2050A7
:10782A0021C017F0186A1726000E1822820E172494
:10783A00266EFF0E1820276E38EF3CF0D8902236BD
:10784A002336243625361FAE2DEF3CF02FEF3CF0C1
:10785A0030EF3CF02280D8901C361D361E361F367B
:10786A002606D8A0270624AE3DEF3CF03FEF3CF0B9
:10787A0023EF3CF0000E206E1FAE46EF3CF048EFBF
:10788A003CF06CEF3CF0FF0E1C14176EFF0E1D143B
:10789A00186EFF0E1E14196E7F0E1F141A6E1750E3
:1078AA00181019101A10D8B45DEF3CF05FEF3CF0D5
:1078BA0063EF3CF0010E206E6CEF3CF022A068EF03
:1078CA003CF06AEF3CF06CEF3CF05FEF3CF020508C
:1078DA00D8B472EF3CF074EF3CF098EF3CF0010E34
:1078EA002226000E23222422252225A07FEF3CF007
:1078FA0081EF3CF098EF3CF022C017F023C018F05B
:10790A0024C019F025C01AF01A341A321932183262
:10791A00173217C022F018C023F019C024F01AC079
:10792A0025F0264A272A27BEA3EF3CF0275008E174
:10793A002628D8A0A3EF3CF0A5EF3CF0AFEF3CF02F
:10794A00000E226E000E236E800E246E7F0E256EB0
:10795A00DDEF3CF027BEBCEF3CF0275006E12604E1
:10796A00D8B0BAEF3CF0BCEF3CF0C8EF3CF0000EE8
:10797A00226E000E236E000E246E000E256E000E7F
:10798A001B6EDDEF3CF026C021F0FF0E2216FF0E23
:10799A0023167F0E2416000E251621A0D7EF3CF0E1
:1079AA00D9EF3CF0DAEF3CF0248ED8902130256EE6
:1079BA001B50251222C00FF023C010F024C011F072
:1079CA0025C012F012002B50800B346E2B502B2442
:1079DA00366E2AAEF3EF3CF0F5EF3CF0F6EF3CF0F2
:1079EA0036803650D8B4FCEF3CF0FEEF3CF013EF93
:1079FA003DF03628D8A404EF3DF006EF3DF00EEF37
:107A0A003DF0000E286E000E296E000E2A6E000E42
:107A1A002B6E2A8E000E2B6E1BEF3DF0000E286E89
:107A2A00000E296E000E2A6E000E2B6E2F50800B50
:107A3A00356E34503518D8B425EF3DF027EF3DF0B8
:107A4A0028EF3DF0348C2F502F24356E2EAE30EFB8
:107A5A003DF032EF3DF033EF3DF035803550D8B48C
:107A6A0039EF3DF03BEF3DF050EF3DF03528D8A41B
:107A7A0041EF3DF043EF3DF04BEF3DF0000E2C6E31
:107A8A00000E2D6E000E2E6E000E2F6E2E8E000E24
:107A9A002F6E58EF3DF0000E2C6E000E2D6E000E6C
:107AAA002E6E000E2F6E3650355CD8B05FEF3DF06B
:107ABA0061EF3DF088EF3DF034AC66EF3DF068EFE2
:107ACA003DF06AEF3DF0800E341A36C037F035C00B
:107ADA0036F037C035F028C037F02CC028F037C050
:107AEA002CF029C037F02DC029F037C02DF02AC05C
:107AFA0037F02EC02AF037C02EF02BC037F02FC037
:107B0A002BF037C02FF0000E376E365035C030F0EC
:107B1A00316A305E000E315A31BE9DEF3DF0315070
:107B2A0009E11A0E305CD8A09DEF3DF09FEF3DF0C1
:107B3A00D6EF3DF0285029102A102B10D8A4A8EF10
:107B4A003DF0ABEF3DF0010EACEF3DF0000E376EAD
:107B5A00000E286E000E296E000E2A6E000E2B6E85
:107B6A0035C036F0DFEF3DF037A0BEEF3DF0C0EF95
:107B7A003DF0C6EF3DF0D89037300109376EC8EFB7
:107B8A003DF0D890373228A0CDEF3DF0CFEF3DF051
:107B9A00D0EF3DF0378E2B342B322A32293228325D
:107BAA00362A3550365CD8A0DDEF3DF0DFEF3DF0E8
:107BBA00B9EF3DF034BCE4EF3DF0E6EF3DF026EFDF
:107BCA003EF03650D8A4ECEF3DF0EEEF3DF0F8EF82
:107BDA003DF0000E286E000E296E000E2A6E000E71
:107BEA002B6E47EF3FF02C5028262D5029222E507D
:107BFA002A222F502B222BA005EF3EF007EF3EF052
:107C0A00B3EF3EF037A00CEF3EF00EEF3EF014EF6C
:107C1A003EF0D89037300109376E16EF3EF0D89013
:107C2A00373228A01BEF3EF01DEF3EF01EEF3EF06C
:107C3A00378E2B342B322A3229322832362AB3EFA6
:107C4A003EF02C50285C2D5029582E502A582B5083
:107C5A00800A306E2F50800A3058D8B037EF3EF085
:107C6A0039EF3EF064EF3EF028502C5C306E29501C
:107C7A002D58316E2A502E58326E2B502F58336E93
:107C8A00FF0E3024286EFF0E3120296EFF0E32209F
:107C9A002A6EFF0E33202B6E800E341A376C375043
:107CAA00D8A45AEF3EF05CEF3EF06CEF3EF0010EC6
:107CBA002826000E29222A222B226CEF3EF02C5075
:107CCA00285E2D50295A2E502A5A2F502B5A2850A6
:107CDA0029102A102B10D8A475EF3EF077EF3EF04A
:107CEA00ACEF3EF03750D8A47DEF3EF07FEF3EF088
:107CFA00ACEF3EF0000E286E000E296E000E2A6EC2
:107D0A00000E2B6E47EF3FF0D890283629362A36D8
:107D1A002B3637AE93EF3EF095EF3EF096EF3EF0FE
:107D2A00288037A09BEF3EF09DEF3EF0A1EF3EF09A
:107D3A00D8803736A3EF3EF0D89037363650D8B4CD
:107D4A00A9EF3EF0ABEF3EF0ACEF3EF036062AAEBE
:107D5A00B1EF3EF0B3EF3EF089EF3EF0000E356E24
:107D6A0037AEBAEF3EF0BCEF3EF0D4EF3EF037C08C
:107D7A0030F07F0E3016D8B4C5EF3EF0C7EF3EF0B4
:107D8A00CBEF3EF0010E356ED4EF3EF028A0D0EFD7
:107D9A003EF0D2EF3EF0D4EF3EF0C7EF3EF0355062
:107DAA00D8B4DAEF3EF0DCEF3EF007EF3FF0010E19
:107DBA002826000E29222A222B222BA0E7EF3EF0AA
:107DCA00E9EF3EF007EF3FF028C030F029C031F06C
:107DDA002AC032F02BC033F03334333232323132EC
:107DEA00303230C028F031C029F032C02AF033C016
:107DFA002BF03628D8B404EF3FF006EF3FF007EF38
:107E0A003FF0362A3628D8B40DEF3FF00FEF3FF097
:107E1A0017EF3FF03650D8A415EF3FF017EF3FF0B9
:107E2A0029EF3FF0000E286E000E296E000E2A6E12
:107E3A00000E2B6E3650D8A425EF3FF027EF3FF007
:107E4A0029EF3FF0000E346E36A02EEF3FF030EFF0
:107E5A003FF033EF3FF02A8E34EF3FF02A9ED8905E
:107E6A0036302B6E34AE3CEF3FF03EEF3FF03FEF43
:107E7A003FF02B8E28C028F029C029F02AC02AF00A
:107E8A002BC02BF01200003F065B4F666D7D077F0B
:107E9A006F777C395E797123232323234D41584917
:107EAA004D4123232323230023232323234D494EF8
:107EBA00494D4F232323232300232323234D4544C2
:107ECA0049444153232323232300234E414F20486F
:107EDA004120564143494E4153230044696769741E
:107EEA00652061207175616E74692D004D61786934
:107EFA006D6F206465203520756E642E0033202D49
:107F0A002046656368617220506F72746100646113
:107F1A006465206E6F2073657269616C2E0056610C
:107F2A006C6F7220696E76616C69646F2E00322004
:107F3A002D20416272697220506F7274610023238E
:107F4A00504F5254412041424552544100706F7281
:107F5A002061626572747572612E0037202D20418E
:107F6A00646963696F6E61720023235245534652F6
:107F7A0049414E444F0023202D2043616E63656CB6
:107F8A0061720034202D204D61782F4D696E0036C4
:107F9A00202D20526574697261720031202D204DA6
:107FAA0065646964617300204469676974653A0DA0
:107FBA000A0023202D20566F6C74617200455354B9
:107FCA004F5155453A0023202D204D656E75004FBF
:107FDA0050434F45533A004469676974653A00450E
:107FEA0053434F4C4841005661632D313400464992
:057FFA004D00430000F2
:020000040020DA
:08000000FFFFFFFFFFFFFFFF00
:020000040030CA
:0E000000FF027100FF8380FF0FC00FE00F4072
:00000001FF
